{"contracts/PisoChain.sol":{"Expense":{"abi":[{"inputs":[{"internalType":"uint256","name":"_amount","type":"uint256"},{"internalType":"address","name":"_contractor","type":"address"},{"internalType":"string","name":"_description","type":"string"}],"stateMutability":"nonpayable","type":"constructor"},{"inputs":[],"name":"amount","outputs":[{"internalType":"uint256","name":"","type":"uint256"}],"stateMutability":"view","type":"function"},{"inputs":[],"name":"approve","outputs":[],"stateMutability":"nonpayable","type":"function"},{"inputs":[],"name":"contractor","outputs":[{"internalType":"address","name":"","type":"address"}],"stateMutability":"view","type":"function"},{"inputs":[],"name":"description","outputs":[{"internalType":"string","name":"","type":"string"}],"stateMutability":"view","type":"function"},{"inputs":[],"name":"getAmount","outputs":[{"internalType":"uint256","name":"","type":"uint256"}],"stateMutability":"view","type":"function"},{"inputs":[],"name":"getContractor","outputs":[{"internalType":"address","name":"","type":"address"}],"stateMutability":"view","type":"function"},{"inputs":[],"name":"getStatus","outputs":[{"internalType":"enum Expense.Status","name":"","type":"uint8"}],"stateMutability":"view","type":"function"},{"inputs":[],"name":"getdate","outputs":[{"internalType":"uint256","name":"","type":"uint256"}],"stateMutability":"view","type":"function"},{"inputs":[],"name":"lastUpdatedDate","outputs":[{"internalType":"uint256","name":"","type":"uint256"}],"stateMutability":"view","type":"function"},{"inputs":[],"name":"reject","outputs":[],"stateMutability":"nonpayable","type":"function"},{"inputs":[],"name":"status","outputs":[{"internalType":"enum Expense.Status","name":"","type":"uint8"}],"stateMutability":"view","type":"function"}],"evm":{"bytecode":{"linkReferences":{},"object":"60806040523480156200001157600080fd5b5060405162000c3338038062000c33833981810160405281019062000037919062000232565b8260008190555081600260006101000a81548173ffffffffffffffffffffffffffffffffffffffff021916908373ffffffffffffffffffffffffffffffffffffffff160217905550806003908051906020019062000097929190620000d6565b506000600460006101000a81548160ff02191690836002811115620000c157620000c0620003ec565b5b021790555042600181905550505050620004d2565b828054620000e49062000380565b90600052602060002090601f01602090048101928262000108576000855562000154565b82601f106200012357805160ff191683800117855562000154565b8280016001018555821562000154579182015b828111156200015357825182559160200191906001019062000136565b5b50905062000163919062000167565b5090565b5b808211156200018257600081600090555060010162000168565b5090565b60006200019d6200019784620002d6565b620002ad565b905082815260208101848484011115620001bc57620001bb6200047e565b5b620001c98482856200034a565b509392505050565b600081519050620001e2816200049e565b92915050565b600082601f8301126200020057620001ff62000479565b5b81516200021284826020860162000186565b91505092915050565b6000815190506200022c81620004b8565b92915050565b6000806000606084860312156200024e576200024d62000488565b5b60006200025e868287016200021b565b93505060206200027186828701620001d1565b925050604084015167ffffffffffffffff81111562000295576200029462000483565b5b620002a386828701620001e8565b9150509250925092565b6000620002b9620002cc565b9050620002c78282620003b6565b919050565b6000604051905090565b600067ffffffffffffffff821115620002f457620002f36200044a565b5b620002ff826200048d565b9050602081019050919050565b6000620003198262000320565b9050919050565b600073ffffffffffffffffffffffffffffffffffffffff82169050919050565b6000819050919050565b60005b838110156200036a5780820151818401526020810190506200034d565b838111156200037a576000848401525b50505050565b600060028204905060018216806200039957607f821691505b60208210811415620003b057620003af6200041b565b5b50919050565b620003c1826200048d565b810181811067ffffffffffffffff82111715620003e357620003e26200044a565b5b80604052505050565b7f4e487b7100000000000000000000000000000000000000000000000000000000600052602160045260246000fd5b7f4e487b7100000000000000000000000000000000000000000000000000000000600052602260045260246000fd5b7f4e487b7100000000000000000000000000000000000000000000000000000000600052604160045260246000fd5b600080fd5b600080fd5b600080fd5b600080fd5b6000601f19601f8301169050919050565b620004a9816200030c565b8114620004b557600080fd5b50565b620004c38162000340565b8114620004cf57600080fd5b50565b61075180620004e26000396000f3fe608060405234801561001057600080fd5b50600436106100a95760003560e01c80634e69d560116100715780634e69d5601461011c5780637284e4161461013a578063aa8c217c14610158578063b6cb405b14610176578063d321fe2914610194578063fbfd2045146101b2576100a9565b806312424e3f146100ae5780631400ca59146100b8578063200d2ed2146100d657806331608dc3146100f45780634dc415de14610112575b600080fd5b6100b66101d0565b005b6100c061027a565b6040516100cd919061054c565b60405180910390f35b6100de610280565b6040516100eb91906104ef565b60405180910390f35b6100fc610293565b604051610109919061054c565b60405180910390f35b61011a61029d565b005b610124610347565b60405161013191906104ef565b60405180910390f35b61014261035e565b60405161014f919061050a565b60405180910390f35b6101606103ec565b60405161016d919061054c565b60405180910390f35b61017e6103f2565b60405161018b91906104d4565b60405180910390f35b61019c61041c565b6040516101a9919061054c565b60405180910390f35b6101ba610425565b6040516101c791906104d4565b60405180910390f35b600060028111156101e4576101e3610649565b5b600460009054906101000a900460ff16600281111561020657610205610649565b5b14610246576040517f08c379a000000000000000000000000000000000000000000000000000000000815260040161023d9061052c565b60405180910390fd5b6001600460006101000a81548160ff0219169083600281111561026c5761026b610649565b5b021790555042600181905550565b60015481565b600460009054906101000a900460ff1681565b6000600154905090565b600060028111156102b1576102b0610649565b5b600460009054906101000a900460ff1660028111156102d3576102d2610649565b5b14610313576040517f08c379a000000000000000000000000000000000000000000000000000000000815260040161030a9061052c565b60405180910390fd5b6002600460006101000a81548160ff0219169083600281111561033957610338610649565b5b021790555042600181905550565b6000600460009054906101000a900460ff16905090565b6003805461036b90610617565b80601f016020809104026020016040519081016040528092919081815260200182805461039790610617565b80156103e45780601f106103b9576101008083540402835291602001916103e4565b820191906000526020600020905b8154815290600101906020018083116103c757829003601f168201915b505050505081565b60005481565b6000600260009054906101000a900473ffffffffffffffffffffffffffffffffffffffff16905090565b60008054905090565b600260009054906101000a900473ffffffffffffffffffffffffffffffffffffffff1681565b61045481610583565b82525050565b610463816105d2565b82525050565b600061047482610567565b61047e8185610572565b935061048e8185602086016105e4565b610497816106a7565b840191505092915050565b60006104af602183610572565b91506104ba826106b8565b604082019050919050565b6104ce816105c8565b82525050565b60006020820190506104e9600083018461044b565b92915050565b6000602082019050610504600083018461045a565b92915050565b600060208201905081810360008301526105248184610469565b905092915050565b60006020820190508181036000830152610545816104a2565b9050919050565b600060208201905061056160008301846104c5565b92915050565b600081519050919050565b600082825260208201905092915050565b600061058e826105a8565b9050919050565b60008190506105a382610707565b919050565b600073ffffffffffffffffffffffffffffffffffffffff82169050919050565b6000819050919050565b60006105dd82610595565b9050919050565b60005b838110156106025780820151818401526020810190506105e7565b83811115610611576000848401525b50505050565b6000600282049050600182168061062f57607f821691505b6020821081141561064357610642610678565b5b50919050565b7f4e487b7100000000000000000000000000000000000000000000000000000000600052602160045260246000fd5b7f4e487b7100000000000000000000000000000000000000000000000000000000600052602260045260246000fd5b6000601f19601f8301169050919050565b7f43616e206f6e6c7920617070726f76652070656e64696e6720657870656e736560008201527f7300000000000000000000000000000000000000000000000000000000000000602082015250565b6003811061071857610717610649565b5b5056fea2646970667358221220a03c600d6a24a77175a6a6aefee85e305eda71ee8e2bbb2b817d7f08bc45b0fc64736f6c63430008050033","opcodes":"PUSH1 0x80 PUSH1 0x40 MSTORE CALLVALUE DUP1 ISZERO PUSH3 0x11 JUMPI PUSH1 0x0 DUP1 REVERT JUMPDEST POP PUSH1 0x40 MLOAD PUSH3 0xC33 CODESIZE SUB DUP1 PUSH3 0xC33 DUP4 CODECOPY DUP2 DUP2 ADD PUSH1 0x40 MSTORE DUP2 ADD SWAP1 PUSH3 0x37 SWAP2 SWAP1 PUSH3 0x232 JUMP JUMPDEST DUP3 PUSH1 0x0 DUP2 SWAP1 SSTORE POP DUP2 PUSH1 0x2 PUSH1 0x0 PUSH2 0x100 EXP DUP2 SLOAD DUP2 PUSH20 0xFFFFFFFFFFFFFFFFFFFFFFFFFFFFFFFFFFFFFFFF MUL NOT AND SWAP1 DUP4 PUSH20 0xFFFFFFFFFFFFFFFFFFFFFFFFFFFFFFFFFFFFFFFF AND MUL OR SWAP1 SSTORE POP DUP1 PUSH1 0x3 SWAP1 DUP1 MLOAD SWAP1 PUSH1 0x20 ADD SWAP1 PUSH3 0x97 SWAP3 SWAP2 SWAP1 PUSH3 0xD6 JUMP JUMPDEST POP PUSH1 0x0 PUSH1 0x4 PUSH1 0x0 PUSH2 0x100 EXP DUP2 SLOAD DUP2 PUSH1 0xFF MUL NOT AND SWAP1 DUP4 PUSH1 0x2 DUP2 GT ISZERO PUSH3 0xC1 JUMPI PUSH3 0xC0 PUSH3 0x3EC JUMP JUMPDEST JUMPDEST MUL OR SWAP1 SSTORE POP TIMESTAMP PUSH1 0x1 DUP2 SWAP1 SSTORE POP POP POP POP PUSH3 0x4D2 JUMP JUMPDEST DUP3 DUP1 SLOAD PUSH3 0xE4 SWAP1 PUSH3 0x380 JUMP JUMPDEST SWAP1 PUSH1 0x0 MSTORE PUSH1 0x20 PUSH1 0x0 KECCAK256 SWAP1 PUSH1 0x1F ADD PUSH1 0x20 SWAP1 DIV DUP2 ADD SWAP3 DUP3 PUSH3 0x108 JUMPI PUSH1 0x0 DUP6 SSTORE PUSH3 0x154 JUMP JUMPDEST DUP3 PUSH1 0x1F LT PUSH3 0x123 JUMPI DUP1 MLOAD PUSH1 0xFF NOT AND DUP4 DUP1 ADD OR DUP6 SSTORE PUSH3 0x154 JUMP JUMPDEST DUP3 DUP1 ADD PUSH1 0x1 ADD DUP6 SSTORE DUP3 ISZERO PUSH3 0x154 JUMPI SWAP2 DUP3 ADD JUMPDEST DUP3 DUP2 GT ISZERO PUSH3 0x153 JUMPI DUP3 MLOAD DUP3 SSTORE SWAP2 PUSH1 0x20 ADD SWAP2 SWAP1 PUSH1 0x1 ADD SWAP1 PUSH3 0x136 JUMP JUMPDEST JUMPDEST POP SWAP1 POP PUSH3 0x163 SWAP2 SWAP1 PUSH3 0x167 JUMP JUMPDEST POP SWAP1 JUMP JUMPDEST JUMPDEST DUP1 DUP3 GT ISZERO PUSH3 0x182 JUMPI PUSH1 0x0 DUP2 PUSH1 0x0 SWAP1 SSTORE POP PUSH1 0x1 ADD PUSH3 0x168 JUMP JUMPDEST POP SWAP1 JUMP JUMPDEST PUSH1 0x0 PUSH3 0x19D PUSH3 0x197 DUP5 PUSH3 0x2D6 JUMP JUMPDEST PUSH3 0x2AD JUMP JUMPDEST SWAP1 POP DUP3 DUP2 MSTORE PUSH1 0x20 DUP2 ADD DUP5 DUP5 DUP5 ADD GT ISZERO PUSH3 0x1BC JUMPI PUSH3 0x1BB PUSH3 0x47E JUMP JUMPDEST JUMPDEST PUSH3 0x1C9 DUP5 DUP3 DUP6 PUSH3 0x34A JUMP JUMPDEST POP SWAP4 SWAP3 POP POP POP JUMP JUMPDEST PUSH1 0x0 DUP2 MLOAD SWAP1 POP PUSH3 0x1E2 DUP2 PUSH3 0x49E JUMP JUMPDEST SWAP3 SWAP2 POP POP JUMP JUMPDEST PUSH1 0x0 DUP3 PUSH1 0x1F DUP4 ADD SLT PUSH3 0x200 JUMPI PUSH3 0x1FF PUSH3 0x479 JUMP JUMPDEST JUMPDEST DUP2 MLOAD PUSH3 0x212 DUP5 DUP3 PUSH1 0x20 DUP7 ADD PUSH3 0x186 JUMP JUMPDEST SWAP2 POP POP SWAP3 SWAP2 POP POP JUMP JUMPDEST PUSH1 0x0 DUP2 MLOAD SWAP1 POP PUSH3 0x22C DUP2 PUSH3 0x4B8 JUMP JUMPDEST SWAP3 SWAP2 POP POP JUMP JUMPDEST PUSH1 0x0 DUP1 PUSH1 0x0 PUSH1 0x60 DUP5 DUP7 SUB SLT ISZERO PUSH3 0x24E JUMPI PUSH3 0x24D PUSH3 0x488 JUMP JUMPDEST JUMPDEST PUSH1 0x0 PUSH3 0x25E DUP7 DUP3 DUP8 ADD PUSH3 0x21B JUMP JUMPDEST SWAP4 POP POP PUSH1 0x20 PUSH3 0x271 DUP7 DUP3 DUP8 ADD PUSH3 0x1D1 JUMP JUMPDEST SWAP3 POP POP PUSH1 0x40 DUP5 ADD MLOAD PUSH8 0xFFFFFFFFFFFFFFFF DUP2 GT ISZERO PUSH3 0x295 JUMPI PUSH3 0x294 PUSH3 0x483 JUMP JUMPDEST JUMPDEST PUSH3 0x2A3 DUP7 DUP3 DUP8 ADD PUSH3 0x1E8 JUMP JUMPDEST SWAP2 POP POP SWAP3 POP SWAP3 POP SWAP3 JUMP JUMPDEST PUSH1 0x0 PUSH3 0x2B9 PUSH3 0x2CC JUMP JUMPDEST SWAP1 POP PUSH3 0x2C7 DUP3 DUP3 PUSH3 0x3B6 JUMP JUMPDEST SWAP2 SWAP1 POP JUMP JUMPDEST PUSH1 0x0 PUSH1 0x40 MLOAD SWAP1 POP SWAP1 JUMP JUMPDEST PUSH1 0x0 PUSH8 0xFFFFFFFFFFFFFFFF DUP3 GT ISZERO PUSH3 0x2F4 JUMPI PUSH3 0x2F3 PUSH3 0x44A JUMP JUMPDEST JUMPDEST PUSH3 0x2FF DUP3 PUSH3 0x48D JUMP JUMPDEST SWAP1 POP PUSH1 0x20 DUP2 ADD SWAP1 POP SWAP2 SWAP1 POP JUMP JUMPDEST PUSH1 0x0 PUSH3 0x319 DUP3 PUSH3 0x320 JUMP JUMPDEST SWAP1 POP SWAP2 SWAP1 POP JUMP JUMPDEST PUSH1 0x0 PUSH20 0xFFFFFFFFFFFFFFFFFFFFFFFFFFFFFFFFFFFFFFFF DUP3 AND SWAP1 POP SWAP2 SWAP1 POP JUMP JUMPDEST PUSH1 0x0 DUP2 SWAP1 POP SWAP2 SWAP1 POP JUMP JUMPDEST PUSH1 0x0 JUMPDEST DUP4 DUP2 LT ISZERO PUSH3 0x36A JUMPI DUP1 DUP3 ADD MLOAD DUP2 DUP5 ADD MSTORE PUSH1 0x20 DUP2 ADD SWAP1 POP PUSH3 0x34D JUMP JUMPDEST DUP4 DUP2 GT ISZERO PUSH3 0x37A JUMPI PUSH1 0x0 DUP5 DUP5 ADD MSTORE JUMPDEST POP POP POP POP JUMP JUMPDEST PUSH1 0x0 PUSH1 0x2 DUP3 DIV SWAP1 POP PUSH1 0x1 DUP3 AND DUP1 PUSH3 0x399 JUMPI PUSH1 0x7F DUP3 AND SWAP2 POP JUMPDEST PUSH1 0x20 DUP3 LT DUP2 EQ ISZERO PUSH3 0x3B0 JUMPI PUSH3 0x3AF PUSH3 0x41B JUMP JUMPDEST JUMPDEST POP SWAP2 SWAP1 POP JUMP JUMPDEST PUSH3 0x3C1 DUP3 PUSH3 0x48D JUMP JUMPDEST DUP2 ADD DUP2 DUP2 LT PUSH8 0xFFFFFFFFFFFFFFFF DUP3 GT OR ISZERO PUSH3 0x3E3 JUMPI PUSH3 0x3E2 PUSH3 0x44A JUMP JUMPDEST JUMPDEST DUP1 PUSH1 0x40 MSTORE POP POP POP JUMP JUMPDEST PUSH32 0x4E487B7100000000000000000000000000000000000000000000000000000000 PUSH1 0x0 MSTORE PUSH1 0x21 PUSH1 0x4 MSTORE PUSH1 0x24 PUSH1 0x0 REVERT JUMPDEST PUSH32 0x4E487B7100000000000000000000000000000000000000000000000000000000 PUSH1 0x0 MSTORE PUSH1 0x22 PUSH1 0x4 MSTORE PUSH1 0x24 PUSH1 0x0 REVERT JUMPDEST PUSH32 0x4E487B7100000000000000000000000000000000000000000000000000000000 PUSH1 0x0 MSTORE PUSH1 0x41 PUSH1 0x4 MSTORE PUSH1 0x24 PUSH1 0x0 REVERT JUMPDEST PUSH1 0x0 DUP1 REVERT JUMPDEST PUSH1 0x0 DUP1 REVERT JUMPDEST PUSH1 0x0 DUP1 REVERT JUMPDEST PUSH1 0x0 DUP1 REVERT JUMPDEST PUSH1 0x0 PUSH1 0x1F NOT PUSH1 0x1F DUP4 ADD AND SWAP1 POP SWAP2 SWAP1 POP JUMP JUMPDEST PUSH3 0x4A9 DUP2 PUSH3 0x30C JUMP JUMPDEST DUP2 EQ PUSH3 0x4B5 JUMPI PUSH1 0x0 DUP1 REVERT JUMPDEST POP JUMP JUMPDEST PUSH3 0x4C3 DUP2 PUSH3 0x340 JUMP JUMPDEST DUP2 EQ PUSH3 0x4CF JUMPI PUSH1 0x0 DUP1 REVERT JUMPDEST POP JUMP JUMPDEST PUSH2 0x751 DUP1 PUSH3 0x4E2 PUSH1 0x0 CODECOPY PUSH1 0x0 RETURN INVALID PUSH1 0x80 PUSH1 0x40 MSTORE CALLVALUE DUP1 ISZERO PUSH2 0x10 JUMPI PUSH1 0x0 DUP1 REVERT JUMPDEST POP PUSH1 0x4 CALLDATASIZE LT PUSH2 0xA9 JUMPI PUSH1 0x0 CALLDATALOAD PUSH1 0xE0 SHR DUP1 PUSH4 0x4E69D560 GT PUSH2 0x71 JUMPI DUP1 PUSH4 0x4E69D560 EQ PUSH2 0x11C JUMPI DUP1 PUSH4 0x7284E416 EQ PUSH2 0x13A JUMPI DUP1 PUSH4 0xAA8C217C EQ PUSH2 0x158 JUMPI DUP1 PUSH4 0xB6CB405B EQ PUSH2 0x176 JUMPI DUP1 PUSH4 0xD321FE29 EQ PUSH2 0x194 JUMPI DUP1 PUSH4 0xFBFD2045 EQ PUSH2 0x1B2 JUMPI PUSH2 0xA9 JUMP JUMPDEST DUP1 PUSH4 0x12424E3F EQ PUSH2 0xAE JUMPI DUP1 PUSH4 0x1400CA59 EQ PUSH2 0xB8 JUMPI DUP1 PUSH4 0x200D2ED2 EQ PUSH2 0xD6 JUMPI DUP1 PUSH4 0x31608DC3 EQ PUSH2 0xF4 JUMPI DUP1 PUSH4 0x4DC415DE EQ PUSH2 0x112 JUMPI JUMPDEST PUSH1 0x0 DUP1 REVERT JUMPDEST PUSH2 0xB6 PUSH2 0x1D0 JUMP JUMPDEST STOP JUMPDEST PUSH2 0xC0 PUSH2 0x27A JUMP JUMPDEST PUSH1 0x40 MLOAD PUSH2 0xCD SWAP2 SWAP1 PUSH2 0x54C JUMP JUMPDEST PUSH1 0x40 MLOAD DUP1 SWAP2 SUB SWAP1 RETURN JUMPDEST PUSH2 0xDE PUSH2 0x280 JUMP JUMPDEST PUSH1 0x40 MLOAD PUSH2 0xEB SWAP2 SWAP1 PUSH2 0x4EF JUMP JUMPDEST PUSH1 0x40 MLOAD DUP1 SWAP2 SUB SWAP1 RETURN JUMPDEST PUSH2 0xFC PUSH2 0x293 JUMP JUMPDEST PUSH1 0x40 MLOAD PUSH2 0x109 SWAP2 SWAP1 PUSH2 0x54C JUMP JUMPDEST PUSH1 0x40 MLOAD DUP1 SWAP2 SUB SWAP1 RETURN JUMPDEST PUSH2 0x11A PUSH2 0x29D JUMP JUMPDEST STOP JUMPDEST PUSH2 0x124 PUSH2 0x347 JUMP JUMPDEST PUSH1 0x40 MLOAD PUSH2 0x131 SWAP2 SWAP1 PUSH2 0x4EF JUMP JUMPDEST PUSH1 0x40 MLOAD DUP1 SWAP2 SUB SWAP1 RETURN JUMPDEST PUSH2 0x142 PUSH2 0x35E JUMP JUMPDEST PUSH1 0x40 MLOAD PUSH2 0x14F SWAP2 SWAP1 PUSH2 0x50A JUMP JUMPDEST PUSH1 0x40 MLOAD DUP1 SWAP2 SUB SWAP1 RETURN JUMPDEST PUSH2 0x160 PUSH2 0x3EC JUMP JUMPDEST PUSH1 0x40 MLOAD PUSH2 0x16D SWAP2 SWAP1 PUSH2 0x54C JUMP JUMPDEST PUSH1 0x40 MLOAD DUP1 SWAP2 SUB SWAP1 RETURN JUMPDEST PUSH2 0x17E PUSH2 0x3F2 JUMP JUMPDEST PUSH1 0x40 MLOAD PUSH2 0x18B SWAP2 SWAP1 PUSH2 0x4D4 JUMP JUMPDEST PUSH1 0x40 MLOAD DUP1 SWAP2 SUB SWAP1 RETURN JUMPDEST PUSH2 0x19C PUSH2 0x41C JUMP JUMPDEST PUSH1 0x40 MLOAD PUSH2 0x1A9 SWAP2 SWAP1 PUSH2 0x54C JUMP JUMPDEST PUSH1 0x40 MLOAD DUP1 SWAP2 SUB SWAP1 RETURN JUMPDEST PUSH2 0x1BA PUSH2 0x425 JUMP JUMPDEST PUSH1 0x40 MLOAD PUSH2 0x1C7 SWAP2 SWAP1 PUSH2 0x4D4 JUMP JUMPDEST PUSH1 0x40 MLOAD DUP1 SWAP2 SUB SWAP1 RETURN JUMPDEST PUSH1 0x0 PUSH1 0x2 DUP2 GT ISZERO PUSH2 0x1E4 JUMPI PUSH2 0x1E3 PUSH2 0x649 JUMP JUMPDEST JUMPDEST PUSH1 0x4 PUSH1 0x0 SWAP1 SLOAD SWAP1 PUSH2 0x100 EXP SWAP1 DIV PUSH1 0xFF AND PUSH1 0x2 DUP2 GT ISZERO PUSH2 0x206 JUMPI PUSH2 0x205 PUSH2 0x649 JUMP JUMPDEST JUMPDEST EQ PUSH2 0x246 JUMPI PUSH1 0x40 MLOAD PUSH32 0x8C379A000000000000000000000000000000000000000000000000000000000 DUP2 MSTORE PUSH1 0x4 ADD PUSH2 0x23D SWAP1 PUSH2 0x52C JUMP JUMPDEST PUSH1 0x40 MLOAD DUP1 SWAP2 SUB SWAP1 REVERT JUMPDEST PUSH1 0x1 PUSH1 0x4 PUSH1 0x0 PUSH2 0x100 EXP DUP2 SLOAD DUP2 PUSH1 0xFF MUL NOT AND SWAP1 DUP4 PUSH1 0x2 DUP2 GT ISZERO PUSH2 0x26C JUMPI PUSH2 0x26B PUSH2 0x649 JUMP JUMPDEST JUMPDEST MUL OR SWAP1 SSTORE POP TIMESTAMP PUSH1 0x1 DUP2 SWAP1 SSTORE POP JUMP JUMPDEST PUSH1 0x1 SLOAD DUP2 JUMP JUMPDEST PUSH1 0x4 PUSH1 0x0 SWAP1 SLOAD SWAP1 PUSH2 0x100 EXP SWAP1 DIV PUSH1 0xFF AND DUP2 JUMP JUMPDEST PUSH1 0x0 PUSH1 0x1 SLOAD SWAP1 POP SWAP1 JUMP JUMPDEST PUSH1 0x0 PUSH1 0x2 DUP2 GT ISZERO PUSH2 0x2B1 JUMPI PUSH2 0x2B0 PUSH2 0x649 JUMP JUMPDEST JUMPDEST PUSH1 0x4 PUSH1 0x0 SWAP1 SLOAD SWAP1 PUSH2 0x100 EXP SWAP1 DIV PUSH1 0xFF AND PUSH1 0x2 DUP2 GT ISZERO PUSH2 0x2D3 JUMPI PUSH2 0x2D2 PUSH2 0x649 JUMP JUMPDEST JUMPDEST EQ PUSH2 0x313 JUMPI PUSH1 0x40 MLOAD PUSH32 0x8C379A000000000000000000000000000000000000000000000000000000000 DUP2 MSTORE PUSH1 0x4 ADD PUSH2 0x30A SWAP1 PUSH2 0x52C JUMP JUMPDEST PUSH1 0x40 MLOAD DUP1 SWAP2 SUB SWAP1 REVERT JUMPDEST PUSH1 0x2 PUSH1 0x4 PUSH1 0x0 PUSH2 0x100 EXP DUP2 SLOAD DUP2 PUSH1 0xFF MUL NOT AND SWAP1 DUP4 PUSH1 0x2 DUP2 GT ISZERO PUSH2 0x339 JUMPI PUSH2 0x338 PUSH2 0x649 JUMP JUMPDEST JUMPDEST MUL OR SWAP1 SSTORE POP TIMESTAMP PUSH1 0x1 DUP2 SWAP1 SSTORE POP JUMP JUMPDEST PUSH1 0x0 PUSH1 0x4 PUSH1 0x0 SWAP1 SLOAD SWAP1 PUSH2 0x100 EXP SWAP1 DIV PUSH1 0xFF AND SWAP1 POP SWAP1 JUMP JUMPDEST PUSH1 0x3 DUP1 SLOAD PUSH2 0x36B SWAP1 PUSH2 0x617 JUMP JUMPDEST DUP1 PUSH1 0x1F ADD PUSH1 0x20 DUP1 SWAP2 DIV MUL PUSH1 0x20 ADD PUSH1 0x40 MLOAD SWAP1 DUP2 ADD PUSH1 0x40 MSTORE DUP1 SWAP3 SWAP2 SWAP1 DUP2 DUP2 MSTORE PUSH1 0x20 ADD DUP3 DUP1 SLOAD PUSH2 0x397 SWAP1 PUSH2 0x617 JUMP JUMPDEST DUP1 ISZERO PUSH2 0x3E4 JUMPI DUP1 PUSH1 0x1F LT PUSH2 0x3B9 JUMPI PUSH2 0x100 DUP1 DUP4 SLOAD DIV MUL DUP4 MSTORE SWAP2 PUSH1 0x20 ADD SWAP2 PUSH2 0x3E4 JUMP JUMPDEST DUP3 ADD SWAP2 SWAP1 PUSH1 0x0 MSTORE PUSH1 0x20 PUSH1 0x0 KECCAK256 SWAP1 JUMPDEST DUP2 SLOAD DUP2 MSTORE SWAP1 PUSH1 0x1 ADD SWAP1 PUSH1 0x20 ADD DUP1 DUP4 GT PUSH2 0x3C7 JUMPI DUP3 SWAP1 SUB PUSH1 0x1F AND DUP3 ADD SWAP2 JUMPDEST POP POP POP POP POP DUP2 JUMP JUMPDEST PUSH1 0x0 SLOAD DUP2 JUMP JUMPDEST PUSH1 0x0 PUSH1 0x2 PUSH1 0x0 SWAP1 SLOAD SWAP1 PUSH2 0x100 EXP SWAP1 DIV PUSH20 0xFFFFFFFFFFFFFFFFFFFFFFFFFFFFFFFFFFFFFFFF AND SWAP1 POP SWAP1 JUMP JUMPDEST PUSH1 0x0 DUP1 SLOAD SWAP1 POP SWAP1 JUMP JUMPDEST PUSH1 0x2 PUSH1 0x0 SWAP1 SLOAD SWAP1 PUSH2 0x100 EXP SWAP1 DIV PUSH20 0xFFFFFFFFFFFFFFFFFFFFFFFFFFFFFFFFFFFFFFFF AND DUP2 JUMP JUMPDEST PUSH2 0x454 DUP2 PUSH2 0x583 JUMP JUMPDEST DUP3 MSTORE POP POP JUMP JUMPDEST PUSH2 0x463 DUP2 PUSH2 0x5D2 JUMP JUMPDEST DUP3 MSTORE POP POP JUMP JUMPDEST PUSH1 0x0 PUSH2 0x474 DUP3 PUSH2 0x567 JUMP JUMPDEST PUSH2 0x47E DUP2 DUP6 PUSH2 0x572 JUMP JUMPDEST SWAP4 POP PUSH2 0x48E DUP2 DUP6 PUSH1 0x20 DUP7 ADD PUSH2 0x5E4 JUMP JUMPDEST PUSH2 0x497 DUP2 PUSH2 0x6A7 JUMP JUMPDEST DUP5 ADD SWAP2 POP POP SWAP3 SWAP2 POP POP JUMP JUMPDEST PUSH1 0x0 PUSH2 0x4AF PUSH1 0x21 DUP4 PUSH2 0x572 JUMP JUMPDEST SWAP2 POP PUSH2 0x4BA DUP3 PUSH2 0x6B8 JUMP JUMPDEST PUSH1 0x40 DUP3 ADD SWAP1 POP SWAP2 SWAP1 POP JUMP JUMPDEST PUSH2 0x4CE DUP2 PUSH2 0x5C8 JUMP JUMPDEST DUP3 MSTORE POP POP JUMP JUMPDEST PUSH1 0x0 PUSH1 0x20 DUP3 ADD SWAP1 POP PUSH2 0x4E9 PUSH1 0x0 DUP4 ADD DUP5 PUSH2 0x44B JUMP JUMPDEST SWAP3 SWAP2 POP POP JUMP JUMPDEST PUSH1 0x0 PUSH1 0x20 DUP3 ADD SWAP1 POP PUSH2 0x504 PUSH1 0x0 DUP4 ADD DUP5 PUSH2 0x45A JUMP JUMPDEST SWAP3 SWAP2 POP POP JUMP JUMPDEST PUSH1 0x0 PUSH1 0x20 DUP3 ADD SWAP1 POP DUP2 DUP2 SUB PUSH1 0x0 DUP4 ADD MSTORE PUSH2 0x524 DUP2 DUP5 PUSH2 0x469 JUMP JUMPDEST SWAP1 POP SWAP3 SWAP2 POP POP JUMP JUMPDEST PUSH1 0x0 PUSH1 0x20 DUP3 ADD SWAP1 POP DUP2 DUP2 SUB PUSH1 0x0 DUP4 ADD MSTORE PUSH2 0x545 DUP2 PUSH2 0x4A2 JUMP JUMPDEST SWAP1 POP SWAP2 SWAP1 POP JUMP JUMPDEST PUSH1 0x0 PUSH1 0x20 DUP3 ADD SWAP1 POP PUSH2 0x561 PUSH1 0x0 DUP4 ADD DUP5 PUSH2 0x4C5 JUMP JUMPDEST SWAP3 SWAP2 POP POP JUMP JUMPDEST PUSH1 0x0 DUP2 MLOAD SWAP1 POP SWAP2 SWAP1 POP JUMP JUMPDEST PUSH1 0x0 DUP3 DUP3 MSTORE PUSH1 0x20 DUP3 ADD SWAP1 POP SWAP3 SWAP2 POP POP JUMP JUMPDEST PUSH1 0x0 PUSH2 0x58E DUP3 PUSH2 0x5A8 JUMP JUMPDEST SWAP1 POP SWAP2 SWAP1 POP JUMP JUMPDEST PUSH1 0x0 DUP2 SWAP1 POP PUSH2 0x5A3 DUP3 PUSH2 0x707 JUMP JUMPDEST SWAP2 SWAP1 POP JUMP JUMPDEST PUSH1 0x0 PUSH20 0xFFFFFFFFFFFFFFFFFFFFFFFFFFFFFFFFFFFFFFFF DUP3 AND SWAP1 POP SWAP2 SWAP1 POP JUMP JUMPDEST PUSH1 0x0 DUP2 SWAP1 POP SWAP2 SWAP1 POP JUMP JUMPDEST PUSH1 0x0 PUSH2 0x5DD DUP3 PUSH2 0x595 JUMP JUMPDEST SWAP1 POP SWAP2 SWAP1 POP JUMP JUMPDEST PUSH1 0x0 JUMPDEST DUP4 DUP2 LT ISZERO PUSH2 0x602 JUMPI DUP1 DUP3 ADD MLOAD DUP2 DUP5 ADD MSTORE PUSH1 0x20 DUP2 ADD SWAP1 POP PUSH2 0x5E7 JUMP JUMPDEST DUP4 DUP2 GT ISZERO PUSH2 0x611 JUMPI PUSH1 0x0 DUP5 DUP5 ADD MSTORE JUMPDEST POP POP POP POP JUMP JUMPDEST PUSH1 0x0 PUSH1 0x2 DUP3 DIV SWAP1 POP PUSH1 0x1 DUP3 AND DUP1 PUSH2 0x62F JUMPI PUSH1 0x7F DUP3 AND SWAP2 POP JUMPDEST PUSH1 0x20 DUP3 LT DUP2 EQ ISZERO PUSH2 0x643 JUMPI PUSH2 0x642 PUSH2 0x678 JUMP JUMPDEST JUMPDEST POP SWAP2 SWAP1 POP JUMP JUMPDEST PUSH32 0x4E487B7100000000000000000000000000000000000000000000000000000000 PUSH1 0x0 MSTORE PUSH1 0x21 PUSH1 0x4 MSTORE PUSH1 0x24 PUSH1 0x0 REVERT JUMPDEST PUSH32 0x4E487B7100000000000000000000000000000000000000000000000000000000 PUSH1 0x0 MSTORE PUSH1 0x22 PUSH1 0x4 MSTORE PUSH1 0x24 PUSH1 0x0 REVERT JUMPDEST PUSH1 0x0 PUSH1 0x1F NOT PUSH1 0x1F DUP4 ADD AND SWAP1 POP SWAP2 SWAP1 POP JUMP JUMPDEST PUSH32 0x43616E206F6E6C7920617070726F76652070656E64696E6720657870656E7365 PUSH1 0x0 DUP3 ADD MSTORE PUSH32 0x7300000000000000000000000000000000000000000000000000000000000000 PUSH1 0x20 DUP3 ADD MSTORE POP JUMP JUMPDEST PUSH1 0x3 DUP2 LT PUSH2 0x718 JUMPI PUSH2 0x717 PUSH2 0x649 JUMP JUMPDEST JUMPDEST POP JUMP INVALID LOG2 PUSH5 0x6970667358 0x22 SLT KECCAK256 LOG0 EXTCODECOPY PUSH1 0xD PUSH11 0x24A77175A6A6AEFEE85E30 0x5E 0xDA PUSH18 0xEE8E2BBB2B817D7F08BC45B0FC64736F6C63 NUMBER STOP ADDMOD SDIV STOP CALLER "},"methodIdentifiers":{"amount()":"aa8c217c","approve()":"12424e3f","contractor()":"fbfd2045","description()":"7284e416","getAmount()":"d321fe29","getContractor()":"b6cb405b","getStatus()":"4e69d560","getdate()":"31608dc3","lastUpdatedDate()":"1400ca59","reject()":"4dc415de","status()":"200d2ed2"}}}}}