{
  "_format": "hh-sol-artifact-1",
  "contractName": "ProjectFactory",
  "sourceName": "contracts/PisoChain.sol",
  "abi": [
    {
      "inputs": [
        {
          "internalType": "address",
          "name": "_roleRegistry",
          "type": "address"
        }
      ],
      "stateMutability": "nonpayable",
      "type": "constructor"
    },
    {
      "inputs": [],
      "name": "getAllProjects",
      "outputs": [
        {
          "internalType": "contract Project[]",
          "name": "",
          "type": "address[]"
        }
      ],
      "stateMutability": "view",
      "type": "function"
    },
    {
      "inputs": [
        {
          "internalType": "address",
          "name": "_contractor",
          "type": "address"
        }
      ],
      "name": "proposeProject",
      "outputs": [],
      "stateMutability": "nonpayable",
      "type": "function"
    },
    {
      "inputs": [],
      "name": "roleRegistry",
      "outputs": [
        {
          "internalType": "contract RoleRegistry",
          "name": "",
          "type": "address"
        }
      ],
      "stateMutability": "view",
      "type": "function"
    }
  ],
  "bytecode": "0x608060405234801561001057600080fd5b50604051613dea380380613dea8339818101604052810190610032919061008d565b806000806101000a81548173ffffffffffffffffffffffffffffffffffffffff021916908373ffffffffffffffffffffffffffffffffffffffff16021790555050610108565b600081519050610087816100f1565b92915050565b6000602082840312156100a3576100a26100ec565b5b60006100b184828501610078565b91505092915050565b60006100c5826100cc565b9050919050565b600073ffffffffffffffffffffffffffffffffffffffff82169050919050565b600080fd5b6100fa816100ba565b811461010557600080fd5b50565b613cd3806101176000396000f3fe60806040523480156200001157600080fd5b5060043610620000465760003560e01c806308c73259146200004b57806380d03829146200006d578063e4727f97146200008f575b600080fd5b62000055620000af565b60405162000064919062000519565b60405180910390f35b62000077620000d3565b604051620000869190620004f5565b60405180910390f35b620000ad6004803603810190620000a7919062000359565b62000163565b005b60008054906101000a900473ffffffffffffffffffffffffffffffffffffffff1681565b606060018054806020026020016040519081016040528092919081815260200182805480156200015957602002820191906000526020600020905b8160009054906101000a900473ffffffffffffffffffffffffffffffffffffffff1673ffffffffffffffffffffffffffffffffffffffff16815260200190600101908083116200010e575b5050505050905090565b60008054906101000a900473ffffffffffffffffffffffffffffffffffffffff1673ffffffffffffffffffffffffffffffffffffffff16632e3f84ec336040518263ffffffff1660e01b8152600401620001be91906200049b565b60206040518083038186803b158015620001d757600080fd5b505afa158015620001ec573d6000803e3d6000fd5b505050506040513d601f19601f820116820180604052508101906200021291906200038b565b62000254576040517f08c379a00000000000000000000000000000000000000000000000000000000081526004016200024b9062000536565b60405180910390fd5b60008060009054906101000a900473ffffffffffffffffffffffffffffffffffffffff16338360405162000288906200031d565b6200029693929190620004b8565b604051809103906000f080158015620002b3573d6000803e3d6000fd5b5090506001819080600181540180825580915050600190039060005260206000200160009091909190916101000a81548173ffffffffffffffffffffffffffffffffffffffff021916908373ffffffffffffffffffffffffffffffffffffffff1602179055505050565b613609806200069583390190565b6000813590506200033c8162000660565b92915050565b60008151905062000353816200067a565b92915050565b60006020828403121562000372576200037162000632565b5b600062000382848285016200032b565b91505092915050565b600060208284031215620003a457620003a362000632565b5b6000620003b48482850162000342565b91505092915050565b6000620003cb838362000452565b60208301905092915050565b620003e281620005a2565b82525050565b6000620003f58262000568565b62000401818562000580565b93506200040e8362000558565b8060005b8381101562000445578151620004298882620003bd565b9750620004368362000573565b92505060018101905062000412565b5085935050505092915050565b6200045d81620005e2565b82525050565b6200046e816200060a565b82525050565b60006200048360178362000591565b9150620004908262000637565b602082019050919050565b6000602082019050620004b26000830184620003d7565b92915050565b6000606082019050620004cf6000830186620003d7565b620004de6020830185620003d7565b620004ed6040830184620003d7565b949350505050565b60006020820190508181036000830152620005118184620003e8565b905092915050565b600060208201905062000530600083018462000463565b92915050565b60006020820190508181036000830152620005518162000474565b9050919050565b6000819050602082019050919050565b600081519050919050565b6000602082019050919050565b600082825260208201905092915050565b600082825260208201905092915050565b6000620005af82620005c2565b9050919050565b60008115159050919050565b600073ffffffffffffffffffffffffffffffffffffffff82169050919050565b6000620005ef82620005f6565b9050919050565b60006200060382620005c2565b9050919050565b600062000617826200061e565b9050919050565b60006200062b82620005c2565b9050919050565b600080fd5b7f4e6f7420676f7665726e6d656e74206f6666696369616c000000000000000000600082015250565b6200066b81620005a2565b81146200067757600080fd5b50565b6200068581620005b6565b81146200069157600080fd5b5056fe60806040523480156200001157600080fd5b5060405162003609380380620036098339818101604052810190620000379190620003a0565b82600560006101000a81548173ffffffffffffffffffffffffffffffffffffffff021916908373ffffffffffffffffffffffffffffffffffffffff160217905550600560009054906101000a900473ffffffffffffffffffffffffffffffffffffffff1673ffffffffffffffffffffffffffffffffffffffff16632e3f84ec836040518263ffffffff1660e01b8152600401620000d591906200048d565b60206040518083038186803b158015620000ee57600080fd5b505afa15801562000103573d6000803e3d6000fd5b505050506040513d601f19601f82011682018060405250810190620001299190620003fc565b6200016b576040517f08c379a00000000000000000000000000000000000000000000000000000000081526004016200016290620004d7565b60405180910390fd5b600560009054906101000a900473ffffffffffffffffffffffffffffffffffffffff1673ffffffffffffffffffffffffffffffffffffffff166372b73b05826040518263ffffffff1660e01b8152600401620001c891906200048d565b60206040518083038186803b158015620001e157600080fd5b505afa158015620001f6573d6000803e3d6000fd5b505050506040513d601f19601f820116820180604052508101906200021c9190620003fc565b6200025e576040517f08c379a00000000000000000000000000000000000000000000000000000000081526004016200025590620004f9565b60405180910390fd5b81600360006101000a81548173ffffffffffffffffffffffffffffffffffffffff021916908373ffffffffffffffffffffffffffffffffffffffff16021790555080600460006101000a81548173ffffffffffffffffffffffffffffffffffffffff021916908373ffffffffffffffffffffffffffffffffffffffff1602179055503081604051620002f09062000364565b620002fd929190620004aa565b604051809103906000f0801580156200031a573d6000803e3d6000fd5b50600660006101000a81548173ffffffffffffffffffffffffffffffffffffffff021916908373ffffffffffffffffffffffffffffffffffffffff160217905550505050620005f7565b610d2780620028e283390190565b6000815190506200038381620005c3565b92915050565b6000815190506200039a81620005dd565b92915050565b600080600060608486031215620003bc57620003bb6200056c565b5b6000620003cc8682870162000372565b9350506020620003df8682870162000372565b9250506040620003f28682870162000372565b9150509250925092565b6000602082840312156200041557620004146200056c565b5b6000620004258482850162000389565b91505092915050565b62000439816200052c565b82525050565b60006200044e6019836200051b565b91506200045b8262000571565b602082019050919050565b6000620004756010836200051b565b915062000482826200059a565b602082019050919050565b6000602082019050620004a460008301846200042e565b92915050565b6000604082019050620004c160008301856200042e565b620004d060208301846200042e565b9392505050565b60006020820190508181036000830152620004f2816200043f565b9050919050565b60006020820190508181036000830152620005148162000466565b9050919050565b600082825260208201905092915050565b600062000539826200054c565b9050919050565b60008115159050919050565b600073ffffffffffffffffffffffffffffffffffffffff82169050919050565b600080fd5b7f4e6f74206120676f7665726e6d656e74206f6666696369616c00000000000000600082015250565b7f4e6f74206120636f6e74726163746f7200000000000000000000000000000000600082015250565b620005ce816200052c565b8114620005da57600080fd5b50565b620005e88162000540565b8114620005f457600080fd5b50565b6122db80620006076000396000f3fe608060405260043610620000aa5760003560e01c80636b285eab116200006d5780636b285eab146200019b578063a380e90014620001c9578063d63dc66114620001f9578063dd53ff6c1462000205578063e41423151462000235578063fbfd2045146200026557620000aa565b806308c7325914620000af57806329dd6f7714620000df5780634040b472146200010f57806345864001146200013d57806366151d78146200016b575b600080fd5b348015620000bc57600080fd5b50620000c762000295565b604051620000d691906200112e565b60405180910390f35b348015620000ec57600080fd5b50620000f7620002bb565b604051620001069190620011f5565b60405180910390f35b3480156200011c57600080fd5b506200013b600480360381019062000135919062000d7a565b620002c1565b005b3480156200014a57600080fd5b5062000169600480360381019062000163919062000e10565b62000764565b005b3480156200017857600080fd5b5062000183620008a0565b604051620001929190620010ed565b60405180910390f35b348015620001a857600080fd5b50620001c76004803603810190620001c1919062000d7a565b62000930565b005b348015620001d657600080fd5b50620001e162000a91565b604051620001f09190620010ed565b60405180910390f35b6200020362000b21565b005b3480156200021257600080fd5b506200021d62000bb6565b6040516200022c9190620010ed565b60405180910390f35b3480156200024257600080fd5b506200024d62000c46565b6040516200025c919062001111565b60405180910390f35b3480156200027257600080fd5b506200027d62000c6c565b6040516200028c9190620010a3565b60405180910390f35b600560009054906101000a900473ffffffffffffffffffffffffffffffffffffffff1681565b60075481565b600360009054906101000a900473ffffffffffffffffffffffffffffffffffffffff1673ffffffffffffffffffffffffffffffffffffffff163373ffffffffffffffffffffffffffffffffffffffff161462000354576040517f08c379a00000000000000000000000000000000000000000000000000000000081526004016200034b906200116d565b60405180910390fd5b600081905060008173ffffffffffffffffffffffffffffffffffffffff1663d321fe296040518163ffffffff1660e01b815260040160206040518083038186803b158015620003a257600080fd5b505afa158015620003b7573d6000803e3d6000fd5b505050506040513d601f19601f82011682018060405250810190620003dd919062000dde565b90508047101562000425576040517f08c379a00000000000000000000000000000000000000000000000000000000081526004016200041c906200114b565b60405180910390fd5b600060028111156200043c576200043b620014dd565b5b8273ffffffffffffffffffffffffffffffffffffffff16634e69d5606040518163ffffffff1660e01b815260040160206040518083038186803b1580156200048357600080fd5b505afa15801562000498573d6000803e3d6000fd5b505050506040513d601f19601f82011682018060405250810190620004be919062000dac565b6002811115620004d357620004d2620014dd565b5b1462000516576040517f08c379a00000000000000000000000000000000000000000000000000000000081526004016200050d90620011d3565b60405180910390fd5b8173ffffffffffffffffffffffffffffffffffffffff166312424e3f6040518163ffffffff1660e01b8152600401600060405180830381600087803b1580156200055f57600080fd5b505af115801562000574573d6000803e3d6000fd5b5050505080600760008282546200058c919062001320565b925050819055506001829080600181540180825580915050600190039060005260206000200160009091909190916101000a81548173ffffffffffffffffffffffffffffffffffffffff021916908373ffffffffffffffffffffffffffffffffffffffff1602179055506000600660009054906101000a900473ffffffffffffffffffffffffffffffffffffffff1673ffffffffffffffffffffffffffffffffffffffff1682858460405160240162000647929190620010c0565b6040516020818303038152906040527f47e7ef24000000000000000000000000000000000000000000000000000000007bffffffffffffffffffffffffffffffffffffffffffffffffffffffff19166020820180517bffffffffffffffffffffffffffffffffffffffffffffffffffffffff8381831617835250505050604051620006d391906200108a565b60006040518083038185875af1925050503d806000811462000712576040519150601f19603f3d011682016040523d82523d6000602084013e62000717565b606091505b50509050806200075e576040517f08c379a000000000000000000000000000000000000000000000000000000000815260040162000755906200118f565b60405180910390fd5b50505050565b600460009054906101000a900473ffffffffffffffffffffffffffffffffffffffff1673ffffffffffffffffffffffffffffffffffffffff163373ffffffffffffffffffffffffffffffffffffffff1614620007f7576040517f08c379a0000000000000000000000000000000000000000000000000000000008152600401620007ee90620011b1565b60405180910390fd5b60008233836040516200080a9062000c92565b620008189392919062001212565b604051809103906000f08015801562000835573d6000803e3d6000fd5b5090506000819080600181540180825580915050600190039060005260206000200160009091909190916101000a81548173ffffffffffffffffffffffffffffffffffffffff021916908373ffffffffffffffffffffffffffffffffffffffff160217905550505050565b606060028054806020026020016040519081016040528092919081815260200182805480156200092657602002820191906000526020600020905b8160009054906101000a900473ffffffffffffffffffffffffffffffffffffffff1673ffffffffffffffffffffffffffffffffffffffff1681526020019060010190808311620008db575b5050505050905090565b600360009054906101000a900473ffffffffffffffffffffffffffffffffffffffff1673ffffffffffffffffffffffffffffffffffffffff163373ffffffffffffffffffffffffffffffffffffffff1614620009c3576040517f08c379a0000000000000000000000000000000000000000000000000000000008152600401620009ba906200116d565b60405180910390fd5b60008190508073ffffffffffffffffffffffffffffffffffffffff16634dc415de6040518163ffffffff1660e01b8152600401600060405180830381600087803b15801562000a1157600080fd5b505af115801562000a26573d6000803e3d6000fd5b505050506002819080600181540180825580915050600190039060005260206000200160009091909190916101000a81548173ffffffffffffffffffffffffffffffffffffffff021916908373ffffffffffffffffffffffffffffffffffffffff1602179055505050565b6060600180548060200260200160405190810160405280929190818152602001828054801562000b1757602002820191906000526020600020905b8160009054906101000a900473ffffffffffffffffffffffffffffffffffffffff1673ffffffffffffffffffffffffffffffffffffffff168152602001906001019080831162000acc575b5050505050905090565b600360009054906101000a900473ffffffffffffffffffffffffffffffffffffffff1673ffffffffffffffffffffffffffffffffffffffff163373ffffffffffffffffffffffffffffffffffffffff161462000bb4576040517f08c379a000000000000000000000000000000000000000000000000000000000815260040162000bab906200116d565b60405180910390fd5b565b6060600080548060200260200160405190810160405280929190818152602001828054801562000c3c57602002820191906000526020600020905b8160009054906101000a900473ffffffffffffffffffffffffffffffffffffffff1673ffffffffffffffffffffffffffffffffffffffff168152602001906001019080831162000bf1575b5050505050905090565b600660009054906101000a900473ffffffffffffffffffffffffffffffffffffffff1681565b600460009054906101000a900473ffffffffffffffffffffffffffffffffffffffff1681565b610c33806200167383390190565b600062000cb762000cb1846200127f565b62001256565b90508281526020810184848401111562000cd65762000cd562001540565b5b62000ce384828562001433565b509392505050565b60008135905062000cfc816200162d565b92915050565b60008151905062000d138162001647565b92915050565b600082601f83011262000d315762000d306200153b565b5b813562000d4384826020860162000ca0565b91505092915050565b60008135905062000d5d8162001658565b92915050565b60008151905062000d748162001658565b92915050565b60006020828403121562000d935762000d926200154a565b5b600062000da38482850162000ceb565b91505092915050565b60006020828403121562000dc55762000dc46200154a565b5b600062000dd58482850162000d02565b91505092915050565b60006020828403121562000df75762000df66200154a565b5b600062000e078482850162000d63565b91505092915050565b6000806040838503121562000e2a5762000e296200154a565b5b600062000e3a8582860162000d4c565b925050602083013567ffffffffffffffff81111562000e5e5762000e5d62001545565b5b62000e6c8582860162000d19565b9150509250929050565b600062000e84838362000f42565b60208301905092915050565b62000e9b816200137d565b82525050565b600062000eae82620012c5565b62000eba8185620012f3565b935062000ec783620012b5565b8060005b8381101562000efe57815162000ee2888262000e76565b975062000eef83620012e6565b92505060018101905062000ecb565b5085935050505092915050565b600062000f1882620012d0565b62000f24818562001304565b935062000f3681856020860162001442565b80840191505092915050565b62000f4d81620013bb565b82525050565b62000f5e81620013e3565b82525050565b62000f6f816200140b565b82525050565b600062000f8282620012db565b62000f8e81856200130f565b935062000fa081856020860162001442565b62000fab816200154f565b840191505092915050565b600062000fc5601a836200130f565b915062000fd28262001560565b602082019050919050565b600062000fec6017836200130f565b915062000ff98262001589565b602082019050919050565b6000620010136015836200130f565b91506200102082620015b2565b602082019050919050565b60006200103a6016836200130f565b91506200104782620015db565b602082019050919050565b6000620010616013836200130f565b91506200106e8262001604565b602082019050919050565b6200108481620013b1565b82525050565b600062001098828462000f0b565b915081905092915050565b6000602082019050620010ba600083018462000e90565b92915050565b6000604082019050620010d7600083018562000e90565b620010e6602083018462001079565b9392505050565b6000602082019050818103600083015262001109818462000ea1565b905092915050565b600060208201905062001128600083018462000f53565b92915050565b600060208201905062001145600083018462000f64565b92915050565b60006020820190508181036000830152620011668162000fb6565b9050919050565b60006020820190508181036000830152620011888162000fdd565b9050919050565b60006020820190508181036000830152620011aa8162001004565b9050919050565b60006020820190508181036000830152620011cc816200102b565b9050919050565b60006020820190508181036000830152620011ee8162001052565b9050919050565b60006020820190506200120c600083018462001079565b92915050565b600060608201905062001229600083018662001079565b62001238602083018562000e90565b81810360408301526200124c818462000f75565b9050949350505050565b60006200126262001275565b905062001270828262001478565b919050565b6000604051905090565b600067ffffffffffffffff8211156200129d576200129c6200150c565b5b620012a8826200154f565b9050602081019050919050565b6000819050602082019050919050565b600081519050919050565b600081519050919050565b600081519050919050565b6000602082019050919050565b600082825260208201905092915050565b600081905092915050565b600082825260208201905092915050565b60006200132d82620013b1565b91506200133a83620013b1565b9250827fffffffffffffffffffffffffffffffffffffffffffffffffffffffffffffffff03821115620013725762001371620014ae565b5b828201905092915050565b60006200138a8262001391565b9050919050565b600073ffffffffffffffffffffffffffffffffffffffff82169050919050565b6000819050919050565b6000620013c882620013cf565b9050919050565b6000620013dc8262001391565b9050919050565b6000620013f082620013f7565b9050919050565b6000620014048262001391565b9050919050565b600062001418826200141f565b9050919050565b60006200142c8262001391565b9050919050565b82818337600083830152505050565b60005b838110156200146257808201518184015260208101905062001445565b8381111562001472576000848401525b50505050565b62001483826200154f565b810181811067ffffffffffffffff82111715620014a557620014a46200150c565b5b80604052505050565b7f4e487b7100000000000000000000000000000000000000000000000000000000600052601160045260246000fd5b7f4e487b7100000000000000000000000000000000000000000000000000000000600052602160045260246000fd5b7f4e487b7100000000000000000000000000000000000000000000000000000000600052604160045260246000fd5b600080fd5b600080fd5b600080fd5b600080fd5b6000601f19601f8301169050919050565b7f496e73756666696369656e742070726f6a6563742066756e6473000000000000600082015250565b7f4e6f7420676f7665726e6d656e74206f6666696369616c000000000000000000600082015250565b7f457363726f77206465706f736974206661696c65640000000000000000000000600082015250565b7f4e6f742070726f6a65637420636f6e74726163746f7200000000000000000000600082015250565b7f457870656e7365206e6f742070656e64696e6700000000000000000000000000600082015250565b62001638816200137d565b81146200164457600080fd5b50565b600381106200165557600080fd5b50565b6200166381620013b1565b81146200166f57600080fd5b5056fe60806040523480156200001157600080fd5b5060405162000c3338038062000c33833981810160405281019062000037919062000232565b8260008190555081600260006101000a81548173ffffffffffffffffffffffffffffffffffffffff021916908373ffffffffffffffffffffffffffffffffffffffff160217905550806003908051906020019062000097929190620000d6565b506000600460006101000a81548160ff02191690836002811115620000c157620000c0620003ec565b5b021790555042600181905550505050620004d2565b828054620000e49062000380565b90600052602060002090601f01602090048101928262000108576000855562000154565b82601f106200012357805160ff191683800117855562000154565b8280016001018555821562000154579182015b828111156200015357825182559160200191906001019062000136565b5b50905062000163919062000167565b5090565b5b808211156200018257600081600090555060010162000168565b5090565b60006200019d6200019784620002d6565b620002ad565b905082815260208101848484011115620001bc57620001bb6200047e565b5b620001c98482856200034a565b509392505050565b600081519050620001e2816200049e565b92915050565b600082601f8301126200020057620001ff62000479565b5b81516200021284826020860162000186565b91505092915050565b6000815190506200022c81620004b8565b92915050565b6000806000606084860312156200024e576200024d62000488565b5b60006200025e868287016200021b565b93505060206200027186828701620001d1565b925050604084015167ffffffffffffffff81111562000295576200029462000483565b5b620002a386828701620001e8565b9150509250925092565b6000620002b9620002cc565b9050620002c78282620003b6565b919050565b6000604051905090565b600067ffffffffffffffff821115620002f457620002f36200044a565b5b620002ff826200048d565b9050602081019050919050565b6000620003198262000320565b9050919050565b600073ffffffffffffffffffffffffffffffffffffffff82169050919050565b6000819050919050565b60005b838110156200036a5780820151818401526020810190506200034d565b838111156200037a576000848401525b50505050565b600060028204905060018216806200039957607f821691505b60208210811415620003b057620003af6200041b565b5b50919050565b620003c1826200048d565b810181811067ffffffffffffffff82111715620003e357620003e26200044a565b5b80604052505050565b7f4e487b7100000000000000000000000000000000000000000000000000000000600052602160045260246000fd5b7f4e487b7100000000000000000000000000000000000000000000000000000000600052602260045260246000fd5b7f4e487b7100000000000000000000000000000000000000000000000000000000600052604160045260246000fd5b600080fd5b600080fd5b600080fd5b600080fd5b6000601f19601f8301169050919050565b620004a9816200030c565b8114620004b557600080fd5b50565b620004c38162000340565b8114620004cf57600080fd5b50565b61075180620004e26000396000f3fe608060405234801561001057600080fd5b50600436106100a95760003560e01c80634e69d560116100715780634e69d5601461011c5780637284e4161461013a578063aa8c217c14610158578063b6cb405b14610176578063d321fe2914610194578063fbfd2045146101b2576100a9565b806312424e3f146100ae5780631400ca59146100b8578063200d2ed2146100d657806331608dc3146100f45780634dc415de14610112575b600080fd5b6100b66101d0565b005b6100c061027a565b6040516100cd919061054c565b60405180910390f35b6100de610280565b6040516100eb91906104ef565b60405180910390f35b6100fc610293565b604051610109919061054c565b60405180910390f35b61011a61029d565b005b610124610347565b60405161013191906104ef565b60405180910390f35b61014261035e565b60405161014f919061050a565b60405180910390f35b6101606103ec565b60405161016d919061054c565b60405180910390f35b61017e6103f2565b60405161018b91906104d4565b60405180910390f35b61019c61041c565b6040516101a9919061054c565b60405180910390f35b6101ba610425565b6040516101c791906104d4565b60405180910390f35b600060028111156101e4576101e3610649565b5b600460009054906101000a900460ff16600281111561020657610205610649565b5b14610246576040517f08c379a000000000000000000000000000000000000000000000000000000000815260040161023d9061052c565b60405180910390fd5b6001600460006101000a81548160ff0219169083600281111561026c5761026b610649565b5b021790555042600181905550565b60015481565b600460009054906101000a900460ff1681565b6000600154905090565b600060028111156102b1576102b0610649565b5b600460009054906101000a900460ff1660028111156102d3576102d2610649565b5b14610313576040517f08c379a000000000000000000000000000000000000000000000000000000000815260040161030a9061052c565b60405180910390fd5b6002600460006101000a81548160ff0219169083600281111561033957610338610649565b5b021790555042600181905550565b6000600460009054906101000a900460ff16905090565b6003805461036b90610617565b80601f016020809104026020016040519081016040528092919081815260200182805461039790610617565b80156103e45780601f106103b9576101008083540402835291602001916103e4565b820191906000526020600020905b8154815290600101906020018083116103c757829003601f168201915b505050505081565b60005481565b6000600260009054906101000a900473ffffffffffffffffffffffffffffffffffffffff16905090565b60008054905090565b600260009054906101000a900473ffffffffffffffffffffffffffffffffffffffff1681565b61045481610583565b82525050565b610463816105d2565b82525050565b600061047482610567565b61047e8185610572565b935061048e8185602086016105e4565b610497816106a7565b840191505092915050565b60006104af602183610572565b91506104ba826106b8565b604082019050919050565b6104ce816105c8565b82525050565b60006020820190506104e9600083018461044b565b92915050565b6000602082019050610504600083018461045a565b92915050565b600060208201905081810360008301526105248184610469565b905092915050565b60006020820190508181036000830152610545816104a2565b9050919050565b600060208201905061056160008301846104c5565b92915050565b600081519050919050565b600082825260208201905092915050565b600061058e826105a8565b9050919050565b60008190506105a382610707565b919050565b600073ffffffffffffffffffffffffffffffffffffffff82169050919050565b6000819050919050565b60006105dd82610595565b9050919050565b60005b838110156106025780820151818401526020810190506105e7565b83811115610611576000848401525b50505050565b6000600282049050600182168061062f57607f821691505b6020821081141561064357610642610678565b5b50919050565b7f4e487b7100000000000000000000000000000000000000000000000000000000600052602160045260246000fd5b7f4e487b7100000000000000000000000000000000000000000000000000000000600052602260045260246000fd5b6000601f19601f8301169050919050565b7f43616e206f6e6c7920617070726f76652070656e64696e6720657870656e736560008201527f7300000000000000000000000000000000000000000000000000000000000000602082015250565b6003811061071857610717610649565b5b5056fea2646970667358221220a03c600d6a24a77175a6a6aefee85e305eda71ee8e2bbb2b817d7f08bc45b0fc64736f6c63430008050033a2646970667358221220c02652e5ea9480d86a82d4981ff631076ab0c257f09df8284383e567a05325b864736f6c63430008050033608060405234801561001057600080fd5b50604051610d27380380610d27833981810160405281019061003291906100cf565b816000806101000a81548173ffffffffffffffffffffffffffffffffffffffff021916908373ffffffffffffffffffffffffffffffffffffffff16021790555080600160006101000a81548173ffffffffffffffffffffffffffffffffffffffff021916908373ffffffffffffffffffffffffffffffffffffffff160217905550505061015d565b6000815190506100c981610146565b92915050565b600080604083850312156100e6576100e5610141565b5b60006100f4858286016100ba565b9250506020610105858286016100ba565b9150509250929050565b600061011a82610121565b9050919050565b600073ffffffffffffffffffffffffffffffffffffffff82169050919050565b600080fd5b61014f8161010f565b811461015a57600080fd5b50565b610bbb8061016c6000396000f3fe6080604052600436106100595760003560e01c806347e7ef241461006557806351cff8d914610081578063650b034b146100aa578063aed89fed146100e7578063c8499c5814610112578063fbfd20451461014f57610060565b3661006057005b600080fd5b61007f600480360381019061007a9190610701565b61017a565b005b34801561008d57600080fd5b506100a860048036038101906100a391906106d4565b610314565b005b3480156100b657600080fd5b506100d160048036038101906100cc91906106d4565b610628565b6040516100de91906108b6565b60405180910390f35b3480156100f357600080fd5b506100fc610648565b604051610109919061089b565b60405180910390f35b34801561011e57600080fd5b50610139600480360381019061013491906106d4565b61066c565b60405161014691906109b1565b60405180910390f35b34801561015b57600080fd5b50610164610684565b604051610171919061089b565b60405180910390f35b60008054906101000a900473ffffffffffffffffffffffffffffffffffffffff1673ffffffffffffffffffffffffffffffffffffffff163373ffffffffffffffffffffffffffffffffffffffff1614610208576040517f08c379a00000000000000000000000000000000000000000000000000000000081526004016101ff90610971565b60405180910390fd5b80341461024a576040517f08c379a000000000000000000000000000000000000000000000000000000000815260040161024190610931565b60405180910390fd5b6000600260008473ffffffffffffffffffffffffffffffffffffffff1673ffffffffffffffffffffffffffffffffffffffff16815260200190815260200160002054146102cc576040517f08c379a00000000000000000000000000000000000000000000000000000000081526004016102c3906108d1565b60405180910390fd5b80600260008473ffffffffffffffffffffffffffffffffffffffff1673ffffffffffffffffffffffffffffffffffffffff168152602001908152602001600020819055505050565b600160009054906101000a900473ffffffffffffffffffffffffffffffffffffffff1673ffffffffffffffffffffffffffffffffffffffff163373ffffffffffffffffffffffffffffffffffffffff16146103a4576040517f08c379a000000000000000000000000000000000000000000000000000000000815260040161039b90610911565b60405180910390fd5b6000600260008373ffffffffffffffffffffffffffffffffffffffff1673ffffffffffffffffffffffffffffffffffffffff1681526020019081526020016000205490506000811161042b576040517f08c379a000000000000000000000000000000000000000000000000000000000815260040161042290610951565b60405180910390fd5b600360008373ffffffffffffffffffffffffffffffffffffffff1673ffffffffffffffffffffffffffffffffffffffff16815260200190815260200160002060009054906101000a900460ff16156104b8576040517f08c379a00000000000000000000000000000000000000000000000000000000081526004016104af906108f1565b60405180910390fd5b6001600360008473ffffffffffffffffffffffffffffffffffffffff1673ffffffffffffffffffffffffffffffffffffffff16815260200190815260200160002060006101000a81548160ff0219169083151502179055506000600260008473ffffffffffffffffffffffffffffffffffffffff1673ffffffffffffffffffffffffffffffffffffffff168152602001908152602001600020819055506000600160009054906101000a900473ffffffffffffffffffffffffffffffffffffffff1673ffffffffffffffffffffffffffffffffffffffff168260405161059d90610886565b60006040518083038185875af1925050503d80600081146105da576040519150601f19603f3d011682016040523d82523d6000602084013e6105df565b606091505b5050905080610623576040517f08c379a000000000000000000000000000000000000000000000000000000000815260040161061a90610991565b60405180910390fd5b505050565b60036020528060005260406000206000915054906101000a900460ff1681565b60008054906101000a900473ffffffffffffffffffffffffffffffffffffffff1681565b60026020528060005260406000206000915090505481565b600160009054906101000a900473ffffffffffffffffffffffffffffffffffffffff1681565b6000813590506106b981610b57565b92915050565b6000813590506106ce81610b6e565b92915050565b6000602082840312156106ea576106e9610a30565b5b60006106f8848285016106aa565b91505092915050565b6000806040838503121561071857610717610a30565b5b6000610726858286016106aa565b9250506020610737858286016106bf565b9150509250929050565b61074a816109e8565b82525050565b610759816109fa565b82525050565b600061076c6019836109d7565b915061077782610a35565b602082019050919050565b600061078f6011836109d7565b915061079a82610a5e565b602082019050919050565b60006107b2601c836109d7565b91506107bd82610a87565b602082019050919050565b60006107d56018836109d7565b91506107e082610ab0565b602082019050919050565b60006107f86019836109d7565b915061080382610ad9565b602082019050919050565b600061081b6000836109cc565b915061082682610b02565b600082019050919050565b600061083e601e836109d7565b915061084982610b05565b602082019050919050565b60006108616011836109d7565b915061086c82610b2e565b602082019050919050565b61088081610a26565b82525050565b60006108918261080e565b9150819050919050565b60006020820190506108b06000830184610741565b92915050565b60006020820190506108cb6000830184610750565b92915050565b600060208201905081810360008301526108ea8161075f565b9050919050565b6000602082019050818103600083015261090a81610782565b9050919050565b6000602082019050818103600083015261092a816107a5565b9050919050565b6000602082019050818103600083015261094a816107c8565b9050919050565b6000602082019050818103600083015261096a816107eb565b9050919050565b6000602082019050818103600083015261098a81610831565b9050919050565b600060208201905081810360008301526109aa81610854565b9050919050565b60006020820190506109c66000830184610877565b92915050565b600081905092915050565b600082825260208201905092915050565b60006109f382610a06565b9050919050565b60008115159050919050565b600073ffffffffffffffffffffffffffffffffffffffff82169050919050565b6000819050919050565b600080fd5b7f457870656e736520616c7265616479206465706f736974656400000000000000600082015250565b7f416c72656164792077697468647261776e000000000000000000000000000000600082015250565b7f4f6e6c7920636f6e74726163746f722063616e20776974686472617700000000600082015250565b7f496e636f7272656374206465706f73697420616d6f756e740000000000000000600082015250565b7f4e6f2066756e647320666f72207468697320657870656e736500000000000000600082015250565b50565b7f4f6e6c79207468652070726f6a6563742063616e2063616c6c20746869730000600082015250565b7f5769746864726177616c206661696c6564000000000000000000000000000000600082015250565b610b60816109e8565b8114610b6b57600080fd5b50565b610b7781610a26565b8114610b8257600080fd5b5056fea2646970667358221220f256aa310cd5b798c6e152e86a87c669b2617a53f49c49f5fc882d5eb4b34c6264736f6c63430008050033a2646970667358221220eb8fd93db9ccb0e9784887e552170f8da0830c79d84e2186ccd6e7c5993e7ae664736f6c63430008050033",
  "linkReferences": {},
  "deployedLinkReferences": {}
}