{
  "_format": "hh-sol-artifact-1",
  "contractName": "ProjectFunds",
  "sourceName": "contracts/PisoChain.sol",
  "abi": [
    {
      "inputs": [
        {
          "internalType": "address",
          "name": "_projectContract",
          "type": "address"
        },
        {
          "internalType": "address",
          "name": "_contractor",
          "type": "address"
        }
      ],
      "stateMutability": "nonpayable",
      "type": "constructor"
    },
    {
      "inputs": [],
      "name": "contractor",
      "outputs": [
        {
          "internalType": "address",
          "name": "",
          "type": "address"
        }
      ],
      "stateMutability": "view",
      "type": "function"
    },
    {
      "inputs": [
        {
          "internalType": "address",
          "name": "_expense",
          "type": "address"
        },
        {
          "internalType": "uint256",
          "name": "_amount",
          "type": "uint256"
        }
      ],
      "name": "deposit",
      "outputs": [],
      "stateMutability": "payable",
      "type": "function"
    },
    {
      "inputs": [
        {
          "internalType": "address",
          "name": "",
          "type": "address"
        }
      ],
      "name": "expenseBalances",
      "outputs": [
        {
          "internalType": "uint256",
          "name": "",
          "type": "uint256"
        }
      ],
      "stateMutability": "view",
      "type": "function"
    },
    {
      "inputs": [
        {
          "internalType": "address",
          "name": "",
          "type": "address"
        }
      ],
      "name": "expenseWithdrawn",
      "outputs": [
        {
          "internalType": "bool",
          "name": "",
          "type": "bool"
        }
      ],
      "stateMutability": "view",
      "type": "function"
    },
    {
      "inputs": [],
      "name": "projectContract",
      "outputs": [
        {
          "internalType": "address",
          "name": "",
          "type": "address"
        }
      ],
      "stateMutability": "view",
      "type": "function"
    },
    {
      "inputs": [
        {
          "internalType": "address",
          "name": "_expense",
          "type": "address"
        }
      ],
      "name": "withdraw",
      "outputs": [],
      "stateMutability": "nonpayable",
      "type": "function"
    },
    {
      "stateMutability": "payable",
      "type": "receive"
    }
  ],
  "bytecode": "0x608060405234801561001057600080fd5b50604051610d27380380610d27833981810160405281019061003291906100cf565b816000806101000a81548173ffffffffffffffffffffffffffffffffffffffff021916908373ffffffffffffffffffffffffffffffffffffffff16021790555080600160006101000a81548173ffffffffffffffffffffffffffffffffffffffff021916908373ffffffffffffffffffffffffffffffffffffffff160217905550505061015d565b6000815190506100c981610146565b92915050565b600080604083850312156100e6576100e5610141565b5b60006100f4858286016100ba565b9250506020610105858286016100ba565b9150509250929050565b600061011a82610121565b9050919050565b600073ffffffffffffffffffffffffffffffffffffffff82169050919050565b600080fd5b61014f8161010f565b811461015a57600080fd5b50565b610bbb8061016c6000396000f3fe6080604052600436106100595760003560e01c806347e7ef241461006557806351cff8d914610081578063650b034b146100aa578063aed89fed146100e7578063c8499c5814610112578063fbfd20451461014f57610060565b3661006057005b600080fd5b61007f600480360381019061007a9190610701565b61017a565b005b34801561008d57600080fd5b506100a860048036038101906100a391906106d4565b610314565b005b3480156100b657600080fd5b506100d160048036038101906100cc91906106d4565b610628565b6040516100de91906108b6565b60405180910390f35b3480156100f357600080fd5b506100fc610648565b604051610109919061089b565b60405180910390f35b34801561011e57600080fd5b50610139600480360381019061013491906106d4565b61066c565b60405161014691906109b1565b60405180910390f35b34801561015b57600080fd5b50610164610684565b604051610171919061089b565b60405180910390f35b60008054906101000a900473ffffffffffffffffffffffffffffffffffffffff1673ffffffffffffffffffffffffffffffffffffffff163373ffffffffffffffffffffffffffffffffffffffff1614610208576040517f08c379a00000000000000000000000000000000000000000000000000000000081526004016101ff90610971565b60405180910390fd5b80341461024a576040517f08c379a000000000000000000000000000000000000000000000000000000000815260040161024190610931565b60405180910390fd5b6000600260008473ffffffffffffffffffffffffffffffffffffffff1673ffffffffffffffffffffffffffffffffffffffff16815260200190815260200160002054146102cc576040517f08c379a00000000000000000000000000000000000000000000000000000000081526004016102c3906108d1565b60405180910390fd5b80600260008473ffffffffffffffffffffffffffffffffffffffff1673ffffffffffffffffffffffffffffffffffffffff168152602001908152602001600020819055505050565b600160009054906101000a900473ffffffffffffffffffffffffffffffffffffffff1673ffffffffffffffffffffffffffffffffffffffff163373ffffffffffffffffffffffffffffffffffffffff16146103a4576040517f08c379a000000000000000000000000000000000000000000000000000000000815260040161039b90610911565b60405180910390fd5b6000600260008373ffffffffffffffffffffffffffffffffffffffff1673ffffffffffffffffffffffffffffffffffffffff1681526020019081526020016000205490506000811161042b576040517f08c379a000000000000000000000000000000000000000000000000000000000815260040161042290610951565b60405180910390fd5b600360008373ffffffffffffffffffffffffffffffffffffffff1673ffffffffffffffffffffffffffffffffffffffff16815260200190815260200160002060009054906101000a900460ff16156104b8576040517f08c379a00000000000000000000000000000000000000000000000000000000081526004016104af906108f1565b60405180910390fd5b6001600360008473ffffffffffffffffffffffffffffffffffffffff1673ffffffffffffffffffffffffffffffffffffffff16815260200190815260200160002060006101000a81548160ff0219169083151502179055506000600260008473ffffffffffffffffffffffffffffffffffffffff1673ffffffffffffffffffffffffffffffffffffffff168152602001908152602001600020819055506000600160009054906101000a900473ffffffffffffffffffffffffffffffffffffffff1673ffffffffffffffffffffffffffffffffffffffff168260405161059d90610886565b60006040518083038185875af1925050503d80600081146105da576040519150601f19603f3d011682016040523d82523d6000602084013e6105df565b606091505b5050905080610623576040517f08c379a000000000000000000000000000000000000000000000000000000000815260040161061a90610991565b60405180910390fd5b505050565b60036020528060005260406000206000915054906101000a900460ff1681565b60008054906101000a900473ffffffffffffffffffffffffffffffffffffffff1681565b60026020528060005260406000206000915090505481565b600160009054906101000a900473ffffffffffffffffffffffffffffffffffffffff1681565b6000813590506106b981610b57565b92915050565b6000813590506106ce81610b6e565b92915050565b6000602082840312156106ea576106e9610a30565b5b60006106f8848285016106aa565b91505092915050565b6000806040838503121561071857610717610a30565b5b6000610726858286016106aa565b9250506020610737858286016106bf565b9150509250929050565b61074a816109e8565b82525050565b610759816109fa565b82525050565b600061076c6019836109d7565b915061077782610a35565b602082019050919050565b600061078f6011836109d7565b915061079a82610a5e565b602082019050919050565b60006107b2601c836109d7565b91506107bd82610a87565b602082019050919050565b60006107d56018836109d7565b91506107e082610ab0565b602082019050919050565b60006107f86019836109d7565b915061080382610ad9565b602082019050919050565b600061081b6000836109cc565b915061082682610b02565b600082019050919050565b600061083e601e836109d7565b915061084982610b05565b602082019050919050565b60006108616011836109d7565b915061086c82610b2e565b602082019050919050565b61088081610a26565b82525050565b60006108918261080e565b9150819050919050565b60006020820190506108b06000830184610741565b92915050565b60006020820190506108cb6000830184610750565b92915050565b600060208201905081810360008301526108ea8161075f565b9050919050565b6000602082019050818103600083015261090a81610782565b9050919050565b6000602082019050818103600083015261092a816107a5565b9050919050565b6000602082019050818103600083015261094a816107c8565b9050919050565b6000602082019050818103600083015261096a816107eb565b9050919050565b6000602082019050818103600083015261098a81610831565b9050919050565b600060208201905081810360008301526109aa81610854565b9050919050565b60006020820190506109c66000830184610877565b92915050565b600081905092915050565b600082825260208201905092915050565b60006109f382610a06565b9050919050565b60008115159050919050565b600073ffffffffffffffffffffffffffffffffffffffff82169050919050565b6000819050919050565b600080fd5b7f457870656e736520616c7265616479206465706f736974656400000000000000600082015250565b7f416c72656164792077697468647261776e000000000000000000000000000000600082015250565b7f4f6e6c7920636f6e74726163746f722063616e20776974686472617700000000600082015250565b7f496e636f7272656374206465706f73697420616d6f756e740000000000000000600082015250565b7f4e6f2066756e647320666f72207468697320657870656e736500000000000000600082015250565b50565b7f4f6e6c79207468652070726f6a6563742063616e2063616c6c20746869730000600082015250565b7f5769746864726177616c206661696c6564000000000000000000000000000000600082015250565b610b60816109e8565b8114610b6b57600080fd5b50565b610b7781610a26565b8114610b8257600080fd5b5056fea2646970667358221220f256aa310cd5b798c6e152e86a87c669b2617a53f49c49f5fc882d5eb4b34c6264736f6c63430008050033",
  "linkReferences": {},
  "deployedLinkReferences": {}
}